:020000040800F2
:1000000000000220351700084505000853050008C8
:10001000590500085F05000865050008000000009C
:100020000000000000000000000000006B05000858
:100030007905000800000000870500089505000804
:100040007917000879170008791700087917000850
:100050007917000879170008791700087917000840
:100060007917000879170008791700087917000830
:100070007917000879170008791700087917000820
:100080007917000879170008791700087917000810
:100090007917000879170008791700087917000800
:1000A00079170008791700087917000879170008F0
:1000B00079170008791700087917000879170008E0
:1000C00079170008791700087917000879170008D0
:1000D00079170008791700087917000879170008C0
:1000E00079170008791700087917000879170008B0
:1000F00079170008791700087917000879170008A0
:10010000791700087917000879170008791700088F
:10011000791700087917000879170008791700087F
:10012000791700087917000879170008791700086F
:10013000791700087917000879170008791700085F
:10014000791700087917000879170008791700084F
:10015000791700087917000879170008791700083F
:10016000791700087917000879170008791700082F
:10017000791700087917000879170008791700081F
:08018000791700087917000847
:100188001C1B00080000002024000020C0000020E4
:10019800C000002080B588B000AF786039607B6807
:1001A8001F4A934204D10121012001F045F822E0C1
:1001B8007B681C4A934204D10121022001F03CF8DB
:1001C80019E07B68184A934204D10121042001F008
:1001D80033F810E07B68154A934204D101210820C6
:1001E80001F02AF807E07B68114A934203D1012104
:1001F800102001F021F83B68FB6001233B610023DC
:10020800BB6103237B610123FB6107F10C031946E2
:10021800786800F075FA00BF2037BD4680BD00BF82
:10022800000002400004024000080240000C0240A6
:100238000010024080B483B000AF786039607B68FA
:100248005B8B9AB23B689BB213439AB27B685A8322
:1002580000BF0C37BD465DF8047B704780B483B09F
:1002680000AF786039607B681B8B9AB23B689BB2A1
:1002780013439AB27B681A8300BF0C37BD465DF8FA
:10028800047B704780B500AF4FF480710648FFF7D4
:1002980081FF4FF480710448FFF7CCFF4FF4807161
:1002A8000148FFF7C7FFF9E70000024080B500AF3B
:1002B800164BD3F88830154A43F47003C2F88830D7
:1002C800134B1B68124A43F001031360104B0022C2
:1002D8009A600F4B1B680E4A23F0847323F4803313
:1002E80013600B4B0B4A5A60094B1B68084A23F4EE
:1002F80080231360064B0022DA6000F0A3F8034B5A
:100308004FF000629A6000BF80BD00BF00ED00E0C2
:10031800003802401030002480B487B000AF0023BA
:100328003B6100237B610223FB600023BB60022347
:100338007B603A4B9B6803F00C033B613B69082BDD
:1003480015D03B69082B49D83B69002B03D03B6982
:10035800042B06D042E0344B7B441A46304B1360E2
:1003680042E0324B7B441A462E4B13603CE02B4B49
:100378005B689B0D03F00103BB60284B5B6803F0CF
:100388003F037B60BB68002B0CD0264A7B68B2FB1E
:10039800F3F3224A52689209C2F3080202FB03F3FC
:1003A8007B610BE01E4A7B68B2FBF3F31B4A526881
:1003B8009209C2F3080202FB03F37B61174B5B68E7
:1003C8001B0C03F0030301335B00FB607A69FB68D5
:1003D800B2FBF3F3164A7A44136005E0154B7B44ED
:1003E8001A460F4B136000BF0C4B9B681B0903F0A8
:1003F8000F03114A7A44D35CDBB23B610F4B7B4459
:100408001A683B6922FA03F30D4A7A44136000BF65
:100418001C37BD465DF8047B704700BF00380240BA
:100428000024F40040787D019CFCFF1790FCFF1726
:100438001EFCFF1716FCFF1704FCFF17F6FBFF173F
:10044800EAFBFF1780B483B000AF00237B60002372
:100458003B60364B1B68354A43F480331360334B9B
:100468001B6803F400333B607B6801337B603B68A7
:10047800002B03D17B68B3F5A04FF0D12B4B1B6841
:1004880003F40033002B02D001233B6001E000237A
:100498003B603B68012B42D1244B1B6C234A43F041
:1004A80080531364224B1B68214A43F44043136072
:1004B8001E4B1E4A9B6893601C4B9B681B4A43F467
:1004C80000439360194B9B68184A43F4A053936008
:1004D800164B184A5A60154B1B68144A43F0807330
:1004E800136000BF114B1B6803F00073002BF9D099
:1004F800114B40F205721A600C4B9B680B4A23F0B3
:1005080003039360094B9B68084A43F00203936016
:1005180000BF064B9B6803F00C03082BF9D100BF02
:100528000C37BD465DF8047B704700BF00380240B9
:100538000070004019544007003C024080B400AFEE
:1005480000BFBD465DF8047B704780B400AFFEE78E
:1005580080B400AFFEE780B400AFFEE780B400AF20
:10056800FEE780B400AF00BFBD465DF8047B70476E
:1005780080B400AF00BFBD465DF8047B704780B40F
:1005880000AF00BFBD465DF8047B704780B400AF84
:1005980000BFBD465DF8047B7047000080B582B09F
:1005A80000AF78607B684B4A934208D10121012053
:1005B80000F0D8FE0021012000F0D4FE86E07B6820
:1005C800454A934208D10121022000F0CBFE0021C8
:1005D800022000F0C7FE79E07B68404A934208D1C8
:1005E8000121042000F0BEFE0021042000F0BAFE24
:1005F8006CE07B683A4A934208D10121082000F058
:10060800B1FE0021082000F0ADFE5FE07B68354AAE
:10061800934208D10121102000F0A4FE00211020EF
:1006280000F0A0FE52E07B682F4A934208D10121D6
:10063800202000F097FE0021202000F093FE45E0E6
:100648007B682A4A934208D10121402000F08AFEA3
:100658000021402000F086FE38E07B68244A93425F
:1006680008D10121802000F07DFE0021802000F0CB
:1006780079FE2BE07B681F4A93420AD101214FF48F
:10068800807000F06FFE00214FF4807000F06AFE69
:100698001CE07B68184A93420AD101214FF400708C
:1006A80000F060FE00214FF4007000F05BFE0DE0EA
:1006B8007B68124A934209D101214FF4806000F00F
:1006C80051FE00214FF4806000F04CFE00BF083757
:1006D800BD4680BD00000240000402400008024000
:1006E800000C0240001002400014024000180240B2
:1006F800001C024000200240002402400028024062
:1007080080B487B000AF7860396000237B61002334
:100718003B610023FB6000237B6174E001227B695D
:1007280002FA03F33B613B681B683A691340FB60BC
:10073800FA683B699A4263D17B681A687B695B00F7
:10074800032101FA03F3DB431A407B681A607B68D4
:100758001A683B6859687B695B0001FA03F31A431E
:100768007B681A603B685B68012B03D03B685B6859
:10077800022B2ED17B689A687B695B00032101FA02
:1007880003F3DB431A407B689A607B689A683B688E
:1007980099687B695B0001FA03F31A437B689A60E6
:1007A8007B685A687B699BB2194601238B40DB43FF
:1007B8001A407B685A607B685B683A68D26892B274
:1007C80011467A6992B201FA02F292B21A437B6830
:1007D8005A607B68DA687B699BB25B00032101FA87
:1007E80003F3DB431A407B68DA607B68DA683B68AE
:1007F80019697B695B0001FA03F31A437B68DA60C5
:100808007B6901337B617B690F2B87D900BF00BFF0
:100818001C37BD465DF8047B704780B483B000AFD9
:1008280078607B684FF6FF721A607B6800225A6016
:100838007B6800229A607B680022DA607B6800226D
:100848001A6100BF0C37BD465DF8047B704780B461
:1008580085B000AF78600B467B804FF48033FB6037
:100868007A88FB681343FB60FA687B68DA617A88E8
:100878007B68DA61FA687B68DA617B68DB69FB6050
:100888007B68DB69FB6000BF1437BD465DF8047BFD
:10089800704780B485B000AF78600B467B8000233A
:1008A800FB737B681A697B881340002B02D00123F5
:1008B800FB7301E00023FB73FB7B18461437BD462E
:1008C8005DF8047B704780B483B000AF78607B68C4
:1008D8001B699BB218460C37BD465DF8047B704710
:1008E80080B485B000AF78600B467B800023FB7333
:1008F8007B685A697B881340002B02D00123FB7365
:1009080001E00023FB73FB7B18461437BD465DF8F6
:10091800047B704780B483B000AF78607B685B6904
:100928009BB218460C37BD465DF8047B704780B40F
:1009380083B000AF78600B467B807B687A881A8327
:1009480000BF0C37BD465DF8047B704780B483B0A8
:1009580000AF78600B467B807B687A885A8300BF3B
:100968000C37BD465DF8047B704780B485B000AF96
:10097800F8600B467A607B817B68002B03D0FB68AC
:100988007A891A8302E0FB687A895A8300BF143790
:10099800BD465DF8047B704780B483B000AF7860D3
:1009A8000B467B807A887B685A6100BF0C37BD464E
:1009B8005DF8047B704780B483B000AF78600B4665
:1009C8007B807B685A697B885A407B685A6100BF84
:1009D8000C37BD465DF8047B704780B485B000AF26
:1009E80078600B467B8013467B700023FB600023F6
:1009F800BB607A787B8803F007039B0002FA03F355
:100A0800FB607B88DB089BB21A467B68083253F888
:100A180022207B8803F007039B000F2101FA03F3D0
:100A2800DB437988C90889B2084602EA03017B6872
:100A380000F1080243F822107B88DB089BB21A46B3
:100A48007B68083253F82230FA681343BB607B880E
:100A5800DB089BB21A467B680832B96843F8221053
:100A680000BF1437BD465DF8047B704780B400AF03
:100A7800164B1B68154A43F001031360134B002201
:100A88009A60124B1B68114A23F0A85323F41023D1
:100A980013600E4B0E4A5A600C4B0E4AC3F8842062
:100AA8000A4B0D4AC3F88820084B1B68074A23F4F1
:100AB80080231360054B0022DA60044B0022C3F840
:100AC8008C2000BFBD465DF8047B704700380240AB
:100AD80010300024003000200030002480B483B09F
:100AE80000AF0346FB71064B00221A70044AFB79DB
:100AF800137000BF0C37BD465DF8047B704700BF1C
:100B08000238024080B584B000AF00237B60002328
:100B1800FB600023BB60312000F092FDB8607B6869
:100B280001337B607B68B3F5A04F02D0BB68002B14
:100B3800F1D0312000F084FD0346002B02D00123C0
:100B4800FB6001E00023FB60FB6818461037BD46D8
:100B580080BD80B485B000AF0346FB710023FB6005
:100B68000A4B1B68FB60FB6823F0F803FB60FB790A
:100B7800DB00FA681343FB60044AFB68136000BF9C
:100B88001437BD465DF8047B704700BF003802404B
:100B980080B483B000AF7860044A7B68136000BFFC
:100BA8000C37BD465DF8047B704700BF0000474224
:100BB80080B483B000AF0346FB710D4B00221A705E
:100BC8000B4B00221A70FB79012B02D0042B04D0A6
:100BD80007E0074B01221A7003E0054B05221A7043
:100BE80000BF00BF0C37BD465DF8047B704700BFEF
:100BF8007038024080B483B000AF7860044A7B68E4
:100C0800136000BF0C37BD465DF8047B704700BF1A
:100C1800800E474280B485B000AFF860B9607A6052
:100C28003B607B689A01BB681A433B685B08013BE1
:100C38001B041A43FB681A43BB691B060449134388
:100C48004B6000BF1437BD465DF8047B704700BF9A
:100C58000038024080B483B000AF7860044A7B68F3
:100C6800136000BF0C37BD465DF8047B704700BFBA
:100C78006000474280B483B000AF786039607B6819
:100C88009A013B681B0705491343C1F8843000BF2C
:100C98000C37BD465DF8047B704700BF0038024042
:100CA80080B483B000AF7860044A7B68136000BFEB
:100CB8000C37BD465DF8047B704700BF68004742AB
:100CC80080B485B000AFF860B9607A60FB689A01BB
:100CD800BB681B061A437B681B0705491343C1F809
:100CE800883000BF1437BD465DF8047B704700BFED
:100CF8000038024080B483B000AF7860044A7B6853
:100D0800136000BF0C37BD465DF8047B704700BF19
:100D18007000474280B483B000AF7860044A7B68B3
:100D2800136000BF0C37BD465DF8047B704700BFF9
:100D38004C00474280B485B000AF7860396000232A
:100D4800FB600B4B9B68FB60FB6823F0EC63FB606C
:100D58007A683B681343FA681343FB60044AFB68EC
:100D6800936000BF1437BD465DF8047B704700BF31
:100D78000038024080B485B000AF78603960002345
:100D8800FB600B4B9B68FB60FB6823F07843FB60C0
:100D98007A683B681343FA681343FB60044AFB68AC
:100DA800936000BF1437BD465DF8047B704700BFF1
:100DB8000038024080B485B000AF78600023FB6043
:100DC800094B9B68FB60FB6823F00303FB60FA6830
:100DD8007B681343FB60044AFB68936000BF1437C9
:100DE800BD465DF8047B70470038024080B400AF10
:100DF800054B9B68DBB203F00C03DBB21846BD461B
:100E08005DF8047B704700BF0038024080B485B0AD
:100E180000AF78600023FB60094B9B68FB60FB68B0
:100E280023F0F003FB60FA687B681343FB60044A15
:100E3800FB68936000BF1437BD465DF8047B7047BC
:100E48000038024080B485B000AF78600023FB60B2
:100E5800094B9B68FB60FB6823F4E053FB60FA686E
:100E68007B681343FB60044AFB68936000BF143738
:100E7800BD465DF8047B70470038024080B485B0F9
:100E880000AF78600023FB600A4B9B68FB60FB683F
:100E980023F46043FB607B68DB00FA681343FB6064
:100EA800044AFB68936000BF1437BD465DF8047BB5
:100EB800704700BF0038024080B489B000AF786046
:100EC8000023BB6100237B610023FB6102233B619C
:100ED8000023FB600223BB604D4B9B6803F00C03AF
:100EE800BB61BB69082B11D0BB69082B44D8BB690F
:100EF800002B03D0BB69042B04D03DE07B68454A36
:100F08001A603DE07B68444A1A6039E0404B5B68F0
:100F18009B0D03F00103FB603D4B5B6803F03F034F
:100F2800BB60FB68002B0CD03B4ABB68B2FBF3F3F9
:100F3800374A52689209C2F3080202FB03F3FB61C5
:100F48000BE0344ABB68B2FBF3F3314A52689209AA
:100F5800C2F3080202FB03F3FB612D4B5B681B0C19
:100F680003F0030301335B003B61FA693B69B2FBA1
:100F7800F3F27B681A6003E07B68264A1A6000BFB8
:100F8800234B9B6803F0F003BB61BB691B09BB6182
:100F9800224B7B441A46BB6913441B78DBB27B6146
:100FA8007B681A687B69DA407B685A60184B9B68D3
:100FB80003F4E053BB61BB699B0ABB61184B7B44DC
:100FC8001A46BB6913441B78DBB27B617B685A689D
:100FD8007B69DA407B689A600D4B9B6803F4604339
:100FE800BB61BB695B0BBB610E4B7B441A46BB699B
:100FF80013441B78DBB27B617B685A687B69DA40F3
:101008007B68DA6000BF2437BD465DF8047B704713
:10101800003802400024F40040787D0176F0FF1784
:101028004AF0FF171EF0FF1780B485B000AF786054
:101038000023FB607B6803F44073B3F5407F11D154
:101048000F4B9B68FB60FB6823F4F813FB607B681D
:1010580023F0704323F44073FA681343FB60084A93
:10106800FB689360064B1A6F7B68C3F30B03044954
:1010780013430B6700BF1437BD465DF8047B704708
:101088000038024080B483B000AF7860044A7B68BF
:10109800136000BF0C37BD465DF8047B704700BF86
:1010A8003C0E474280B483B000AF7860044A7B6846
:1010B800136000BF0C37BD465DF8047B704700BF66
:1010C800400E474280B483B000AF7860044A7B6822
:1010D800136000BF0C37BD465DF8047B704700BF46
:1010E8005C01474280B485B000AF78600023FB60A4
:1010F8000A4BD3F88C30FB60FB6823F44013FB6089
:10110800FA687B681343FB60044AFB68C2F88C30BA
:1011180000BF1437BD465DF8047B704700380240B5
:1011280080B485B000AF78600023FB600A4BD3F829
:101138008C30FB60FB6823F44003FB60FA687B6833
:101148001343FB60044AFB68C2F88C3000BF1437B5
:10115800BD465DF8047B70470038024080B485B016
:1011680000AF78600023FB600B4BD3F88C30FB603A
:10117800FB6823F01F03FB607B68013BFA6813439D
:10118800FB60054AFB68C2F88C3000BF1437BD46C7
:101198005DF8047B704700BF0038024080B485B01A
:1011A80000AF78600023FB600B4BD3F88C30FB60FA
:1011B800FB6823F4F853FB607B68013B1B02FA6869
:1011C8001343FB60044AFB68C2F88C3000BF143735
:1011D800BD465DF8047B70470038024080B485B096
:1011E80000AF78600023FB600A4BD3F88C30FB60BB
:1011F800FB6823F44033FB60FA687B681343FB60A9
:10120800044AFB68C2F88C3000BF1437BD465DF84D
:10121800047B70470038024080B483B000AF786028
:10122800044A7B68136000BF0C37BD465DF8047B39
:10123800704700BFE011474280B483B000AF7860C8
:1012480039603B68002B06D0094B1A6B08497B684C
:1012580013430B6306E0064B1A6B7B68DB430449B8
:1012680013400B6300BF0C37BD465DF8047B704725
:101278000038024080B483B000AF786039603B68C2
:10128800002B06D0094B5A6B08497B6813434B6304
:1012980006E0064B5A6B7B68DB43044913404B63FB
:1012A80000BF0C37BD465DF8047B7047003802402C
:1012B80080B483B000AF786039603B68002B06D0FB
:1012C800094B9A6B08497B6813438B6306E0064B0E
:1012D8009A6B7B68DB43044913408B6300BF0C3770
:1012E800BD465DF8047B70470038024080B483B087
:1012F80000AF786039603B68002B06D0094B1A6C48
:1013080008497B6813430B6406E0064B1A6C7B683C
:10131800DB43044913400B6400BF0C37BD465DF83E
:10132800047B70470038024080B483B000AF786017
:1013380039603B68002B06D0094B5A6C08497B681A
:1013480013434B6406E0064B5A6C7B68DB43044945
:1013580013404B6400BF0C37BD465DF8047B7047F3
:101368000038024080B483B000AF786039603B68D1
:10137800002B06D0094B1A6908497B6813430B6197
:1013880006E0064B1A697B68DB43044913400B618E
:1013980000BF0C37BD465DF8047B7047003802403B
:1013A80080B483B000AF786039603B68002B06D00A
:1013B800094B5A6908497B6813434B6106E0064BA1
:1013C8005A697B68DB43044913404B6100BF0C3703
:1013D800BD465DF8047B70470038024080B483B096
:1013E80000AF786039603B68002B06D0094B9A69DA
:1013F80008497B6813438B6106E0064B9A697B6852
:10140800DB43044913408B6100BF0C37BD465DF8D0
:10141800047B70470038024080B483B000AF786026
:1014280039603B68002B06D0094B1A6A08497B686B
:1014380013430B6206E0064B1A6A7B68DB430449D8
:1014480013400B6200BF0C37BD465DF8047B704744
:101458000038024080B483B000AF786039603B68E0
:10146800002B06D0094B5A6A08497B6813434B6224
:1014780006E0064B5A6A7B68DB43044913404B621B
:1014880000BF0C37BD465DF8047B7047003802404A
:1014980080B483B000AF786039603B68002B06D019
:1014A800094B1A6D08497B6813430B6506E0064B28
:1014B8001A6D7B68DB43044913400B6500BF0C378A
:1014C800BD465DF8047B70470038024080B483B0A5
:1014D80000AF786039603B68002B06D0094B5A6D25
:1014E80008497B6813434B6506E0064B5A6D7B68D9
:1014F800DB43044913404B6500BF0C37BD465DF81C
:10150800047B70470038024080B483B000AF786035
:1015180039603B68002B06D0094B9A6D08497B68F7
:1015280013438B6506E0064B9A6D7B68DB430449E1
:1015380013408B6500BF0C37BD465DF8047B7047D0
:101548000038024080B483B000AF786039603B68EF
:10155800002B06D0094B1A6E08497B6813430B66AB
:1015680006E0064B1A6E7B68DB43044913400B66A2
:1015780000BF0C37BD465DF8047B70470038024059
:1015880080B483B000AF786039603B68002B06D028
:10159800094B5A6E08497B6813434B6606E0064BB5
:1015A8005A6E7B68DB43044913404B6600BF0C3717
:1015B800BD465DF8047B70470038024080B483B0B4
:1015C80000AF0346FB71FB79012B06D1094B1B6F5A
:1015D800084A43F00803136705E0064B1B6F054AEA
:1015E80023F00803136700BF0C37BD465DF8047B82
:1015F800704700BF0038024080B483B000AF034694
:101608003960FB713B68002B08D00C4B1B78DAB2B1
:101618000A49FB791343DBB20B7009E0074B1B78CF
:10162800DAB2FB79DB43DBB204491340DBB20B705F
:1016380000BF0C37BD465DF8047B70470D3802408B
:1016480080B487B000AF0346FB710023FB60002322
:101658007B6100233B61FB795B09DBB2FB60FB68C4
:10166800012B03D1124B1B687B6109E0FB68022B3D
:1016780003D10F4B1B6F7B6102E00D4B5B6F7B61EE
:10168800FB7903F01F03FB600122FB689A407B692A
:101698001340002B02D001233B6101E000233B6192
:1016A8003B6918461C37BD465DF8047B704700BF90
:1016B8000038024080B400AF054B5B6F044A43F02A
:1016C8008073536700BFBD465DF8047B704700BF59
:1016D8000038024080B485B000AF0346FB71002398
:1016E800FB60094BDA68FB791340002B02D0012319
:1016F800FB6001E00023FB60FB6818461437BD4619
:101708005DF8047B704700BF0038024080B483B0A6
:1017180000AF0346FB71044AFB79137000BF0C3716
:10172800BD465DF8047B70470E380240002103E097
:101738000A4B5B584350043109480A4B42189A42F5
:10174800F6D3094A02E0002342F8043B074B9A42C9
:10175800F9D3FEF7ABFDFEF795FD70471C1B00089B
:101768000000002024000020C0000020C00000204D
:04177800FEE7000088
:10177C002F6C69622F6C642D6C696E75782D61729B
:09178C006D68662E736F2E3300A8
:101798000000000000000000000000000000000041
:1017A8000000000000000008000000000300010025
:1017B80000000000000000200000000003000900F5
:0117C8000020
:1017CC00010000000100000001000000000000000A
:0817DC00000000000000000005
:1017E40000000008170000000400000817000000B3
:1017F40008000008170000000C0000081700000093
:101804001000000817000000140000081700000072
:1018140018000008170000002C0000081700000042
:10182400300000081700000038000008170000000E
:101834003C000008170000004000000817000000EA
:1018440044000008170000004800000817000000CA
:101854004C000008170000005000000817000000AA
:10186400540000081700000058000008170000008A
:101874005C0000081700000060000008170000006A
:10188400640000081700000068000008170000004A
:101894006C0000081700000070000008170000002A
:1018A400740000081700000078000008170000000A
:1018B4007C000008170000008000000817000000EA
:1018C40084000008170000008800000817000000CA
:1018D4008C000008170000009000000817000000AA
:1018E400940000081700000098000008170000008A
:1018F4009C00000817000000A0000008170000006A
:10190400A400000817000000A80000081700000049
:10191400AC00000817000000B00000081700000029
:10192400B400000817000000B80000081700000009
:10193400BC00000817000000C000000817000000E9
:10194400C400000817000000C800000817000000C9
:10195400CC00000817000000D000000817000000A9
:10196400D400000817000000D80000081700000089
:10197400DC00000817000000E00000081700000069
:10198400E400000817000000E80000081700000049
:10199400EC00000817000000F00000081700000029
:1019A400F400000817000000F80000081700000009
:1019B400FC000008170000000001000817000000E8
:1019C40004010008170000000801000817000000C7
:1019D4000C010008170000001001000817000000A7
:1019E4001401000817000000180100081700000087
:1019F4001C01000817000000200100081700000067
:101A04002401000817000000280100081700000046
:101A14002C01000817000000300100081700000026
:101A24003401000817000000380100081700000006
:101A34003C010008170000004001000817000000E6
:101A440044010008170000004801000817000000C6
:101A54004C010008170000005001000817000000A6
:101A64005401000817000000580100081700000086
:101A74005C01000817000000600100081700000066
:101A84006401000817000000680100081700000046
:101A94006C01000817000000700100081700000026
:101AA4007401000817000000780100081700000006
:101AB4007C010008170000008001000817000000E6
:101AC40084010008170000008801000817000000C6
:101AD4008C010008170000009001000817000000A6
:101AE4009401000817000000980100081700000086
:101AF40064170008170000006817000817000000AA
:101B04006C17000817000000701700081700000089
:081B140074170008170000001F
:101B1C00007A030A00000000000000000102030428
:101B2C000607080900000000010203040102030477
:041B3C000607080987
:101B4000F5FEFF6FCC17000805000000C81700085D
:101B500006000000981700080A00000001000000BD
:101B60000B00000010000000150000000000000045
:101B700011000000E4170008120000003803000004
:101B80001300000008000000160000000000000024
:101B90001E0000000C000000FBFFFF6F01000008AA
:101BA000FAFFFF6F67000000000000000000000067
:101BB0000000000000000000000000000000000025
:101BC0000000000000000000000000000000000015
:0C1BD000240000200000000000000000C5
:0400000508001735A3
:00000001FF
